:10000000000004205D020000B5020000B7020000FD
:10001000B9020000BB020000BD02000000000000A9
:10002000000000000000000000000000BF0200000F
:10003000C102000000000000C3020000C502000071
:10004000C9020000CB020000B5280000F135000015
:10005000D1020000D3020000D5020000D702000048
:10006000D9020000DB020000DD020000DF02000018
:10007000E1020000E3020000E5020000E7020000E8
:10008000E9020000EB020000ED020000EF020000B8
:10009000F1020000F3020000F5020000F702000088
:1000A000F9020000FB020000FD020000FF02000058
:1000B0000103000003030000C7020000C7020000A4
:1000C0000503000007030000090300000B03000004
:1000D0000D0300000F0300001103000013030000D4
:1000E000150300001703000019030000C7020000F9
:1000F000C70200001D030000C70200001B03000030
:10010000354936480A1A02D0072291438D463449B0
:1001100034480A1A06D00722914381F30988022243
:1001200082F3148830483149314A00F044F83148AC
:100130003149324A00F03FF831483249324A00F042
:100140003AF832483249334A00F035F832483349F8
:10015000334A00F030F833483349344A00F02BF882
:1001600033483449344A00F026F8344834490022F0
:1001700000F02CF833483449002200F027F83348C7
:100180003349091A082902DB002202604160314A22
:1001900090471F481F49884205D00268043003B4C5
:1001A000904703BCF7E700208646EC46002000217C
:1001B000294A9047FEE7884207D0521A05D00378B3
:1001C00001300B700131013AF9D17047884202D0F9
:1001D00002700130FAE770470000042000E00320BD
:1001E0000000042000000420E0530000180000205C
:1001F000740000202003000020030000544300008E
:10020000E05300001800002018000020B443000054
:10021000B4430000B4430000B4430000B443000002
:10022000B4430000B4430000B4430000DE530000B8
:100230003C54000074000020740000207400002072
:10024000B0080020B0080020B0080020B00800204E
:10025000B0280020810200009D3A00000F484FF0B6
:100260000701884385460E4880470E48016841F4DF
:1002700070010160BFF34F8FBFF36F8FFFF740BF77
:1002800009480A490A4A884207D0521A05D0037819
:1002900001300B700131013AF9D1704700000420A0
:1002A0000D3E000088ED00E09C43000000000020AF
:1002B00018000020FEE7FEE7FEE7FEE7FEE7FEE7A8
:1002C000FEE7FEE7FEE7FEE7FEE7FEE7FEE7FEE706
:1002D000FEE7FEE7FEE7FEE7FEE7FEE7FEE7FEE7F6
:1002E000FEE7FEE7FEE7FEE7FEE7FEE7FEE7FEE7E6
:1002F000FEE7FEE7FEE7FEE7FEE7FEE7FEE7FEE7D6
:10030000FEE7FEE7FEE7FEE7FEE7FEE7FEE7FEE7C5
:10031000FEE7FEE7FEE7FEE7FEE7FEE7FEE700BFDB
:1003200000B585B00190019B002B0AD0074B43F02C
:1003300001030393019B9B010293039B029898473F
:1003400000E000BF05B05DF804FB00BFC043000043
:1003500000B583B00190019B002B0AD04FF47A7056
:10036000FFF7DEFF019B013B0193019B002BF5D1C1
:1003700000E000BF03B05DF804FB08B503F020FD0A
:1003800000BF08BD00B589B0039002910192019BA6
:10039000002B33D00023079303230693029A079B75
:1003A0001344019A1946002003F0BAFC0590079AFD
:1003B000059B13440793019A059BD31A0193059B50
:1003C000002B13D10F4B1B7883F00103DBB2002B02
:1003D00013D10120FFF7BCFF069B013B0693069B50
:1003E000002B03D1074B00221A7007E0054B0122B6
:1003F0001A70019B002BD1D100E000BF00BF09B0F3
:100400005DF804FB7400002000B585B003900291F4
:10041000054B00934023054A0299039800F012F817
:1004200000BF05B05DF804FB8503000078000020E4
:1004300082B0019000BF02B0704782B0019000BF4F
:1004400002B0704700B5A1B00590049103920293E9
:10045000049801F0ABFF039B1593029B16930023B6
:10046000179300238DF8603000231993229B1A9371
:1004700000231F930FA91F9B0822049802F054F831
:1004800008231F93119B1293BDF84030ADF84C30F8
:10049000BDF84230ADF84E3000238DF851309DF854
:1004A0003C3003F00303DBB2012B26D10F9BC3F3D7
:1004B00095231C939DF83C30C3F3C203DBB28DF847
:1004C0005030BDF83C30C3F38313DBB21B931B9B4E
:1004D0009A0009A91F9B049802F026F81B9B9B0019
:1004E0001F9A13441F9312AA09A915AB0093134630
:1004F0001B9A1C9800F002FF2FE09DF83C3003F09F
:100500000303DBB2022B28D1BDF83E30C3F38913BD
:100510009BB21E939DF83C30C3F3C203DBB28DF84F
:1005200050301E9B082B28BF08231D9307A91F9B33
:100530001D9A049801F0F8FF1F9A1D9B13441F9306
:100540001E9A1D9BD31A1E9315AB12AA07A81D99BC
:1005500000F076FF1E9B002BE3D1049801F035FFDD
:1005600000BF21B05DF804FB82B00190019B012225
:100570005A7200BF02B0704700B583B04FF0FF332E
:100580000193FFF7FAFE0421084800F0D7FD01901F
:10059000019B002B03DA0649412001F0FEF80348D5
:1005A000FFF7E2FF00BF03B05DF804FB1800002076
:1005B000C843000000B583B001900091019B1B6807
:1005C0001B6800990198984700BF03B05DF804FBD1
:1005D00000B583B00190019B1B685B680198984748
:1005E00000BF03B05DF804FB00B583B00190019B30
:1005F0001B689B680198984700BF03B05DF804FB37
:1006000082B001900B468DF80330019B9DF80320CA
:100610001A7200BF02B0704782B00190019B1B7A32
:10062000184602B0704782B00190019B01225A72B5
:1006300000BF02B0704782B00190019B5B7A184600
:1006400002B0704700B587B0019000911D4BFF22AA
:100650009A601C4B00221A601A4B00225A60194BF8
:100660000022C3F81824174B0022C3F81424154B9A
:10067000002283F82024144801F0FCFD0490049B20
:10068000002B01D0049B18E0104A114BD31ADB0851
:100690000393002305930BE0059B9B000D4A134435
:1006A0000293059B9AB2029B1A80059B0133059326
:1006B000059A039B9A42EFD30023184607B05DF8D2
:1006C00004FB00BF88010020844300008443000035
:1006D0005443000000000020024A034BD31ADB08F9
:1006E00018467047844300005443000000B587B0AB
:1006F00001900B468DF803309DF80330002B1FD07E
:10070000FFF7EAFF04900023059313E0059B9B008D
:100710000E4A13440393039B5B881A46019B1B6894
:100720009A4204D1019B059A1A60002309E0059BB7
:1007300001330593059A049B9A42E7D3052300E011
:100740000023184607B05DF804FB00BF000000203E
:1007500000B585B001900B468DF803309DF803205D
:1007600001AB11461846FFF7C1FF0346002B07D126
:10077000019BDB00054A13440393039B1B6800E0C5
:100780000023184605B05DF804FB00BF5443000089
:1007900084B001900B468DF80330019BDB00174AB3
:1007A000134402939DF80330013B032B1CD801A294
:1007B00052F823F0C5070000CD070000D507000060
:1007C000DF07000002238DF80F3011E004238DF8BD
:1007D0000F300DE0029B1B798DF80F3008E0029B73
:1007E0005B798DF80F3003E000238DF80F3000BFE8
:1007F0009DF80F30184604B0704700BF5443000006
:1008000000B585B00190009100238DF80F30019B59
:100810001B7803F00303DBB2002B06D0019B1B788F
:1008200003F00403DBB2002B43D0019B1B7803F0E1
:100830000403DBB2002B27D0019B1B78C3F3010319
:10084000DBB2012B02D0022B0CD017E0009B1B68FF
:10085000019A1288C2F38312D2B213449A1C009BED
:100860001A6023E0009B1B68019A5288C2F3891228
:1008700092B213449A1C009B1A6017E010494FF47F
:10088000A47000F08AFF11E0009B1A68019B5B884E
:10089000C3F389139BB21946019B1B88C3F38913C9
:1008A0009BB20B4413445A1C009B1A6001238DF821
:1008B0000F309DF80F30184605B05DF804FB00BFFF
:1008C0006444000000B58BB00023ADF826303E48EC
:1008D00000F0F1FF3D4800F0EEFF3D4B5B680493F4
:1008E0003B4B9B680693049A069B134002339B0084
:1008F000374A13440433089304AB19460898FFF7AA
:100900007FFF0346002B09D0049A069B1340023355
:100910009B002F4A134404330893EDE700BF0023E4
:10092000079311E0049B5A1C0492069A1340079AFD
:10093000920001A90A44264902339B000B445B68DC
:100940001360079B01330793079B012BEAD99DF89E
:100950000430C3F30103DBB2012B10D0022B1CD1F6
:10096000BDF80A30ADF82630BDF80630C3F3891360
:100970009BB203339A08049B1344049313E0BDF81D
:100980000A30ADF82630BDF80430C3F38313DBB270
:100990001A46049B1344049305E00E494FF4C270B9
:1009A00000F0FBFE00BF094800F091FF0590059B99
:1009B000002B02D0049B064A5360BDF8263018462F
:1009C0000BB05DF804FB00BFA00500209C050020D3
:1009D000880100206444000000B585B0002107486C
:1009E00000F0F2FE0390039B0293029B83F310033B
:1009F0000193019B184605B05DF804FBA405002097
:100A000000B589B00390029101920093039B1B0CE7
:100A10000793FFF7E1FF0690FFF75EFE0246079B94
:100A2000934204D3214940F2A91000F0B6FE069B80
:100A30001904009B5A1C0A9B1340079A0A431C493D
:100A400002339B000B445A60009A0A9B1340023306
:100A50009B00174A134404330593039B03F00703D9
:100A6000D9B2059A137861F3C5031370019B03F0A3
:100A70000F03D9B2059A138861F389131380029B7F
:100A8000C3F31501059A136861F39F231360059A58
:100A90001378012161F301031370059A13786FF342
:100AA0008203137000BF09B05DF804FB64440000CA
:100AB0008801002000B58BB00390029113468DF899
:100AC0000730039B0233089301238DF81F30002069
:100AD00000F01CFE3E4B1A68029B1A603C4B9A6861
:100AE0003B4B59683A4B1B68CB1A134401330993AB
:100AF00014E00121374800F0AEFEFFF7E3FE059059
:100B00000599344800F0A7FE314B9A68304B59687C
:100B10002F4B1B68CB1A134401330993089A099B86
:100B20009A42E6D89DF81F30002B48D0002304934A
:100B30009DF80730002B17D09DF81030012262F38A
:100B400001038DF810309DF8103043F004038DF848
:100B50001030039B03F00F03DAB2BDF8103062F3DC
:100B60008913ADF8103016E09DF81030022262F3C0
:100B700001038DF810309DF8103043F004038DF818
:100B80001030039BC3F309039AB2BDF8123062F32D
:100B90008F13ADF812300E4B1A680D4B9B68134043
:100BA00002339B000A4A134404330693049A069BBB
:100BB0001A60074B1A68089B1344054A136000200B
:100BC00000F0B8FD9DF81F3018460BB05DF804FB2F
:100BD00088010020A405002000B58BB00590049189
:100BE000039202931F4B9B68079306AB01221946A1
:100BF0000298FFF75FFF0346002B24D0069B0233C9
:100C000009930023089311E0089B9B00039A1A4460
:100C1000099B591C099107990B401268114902332D
:100C20009B000B445A60089B01330893089A029B6F
:100C30009A42E9D3069A079B00931346029A0499B5
:100C40000598FFF7DDFE074B93F82034002B05D005
:100C500000BF00F07BF80346002BFAD100BF0BB0B9
:100C60005DF804FB8801002000B583B0019000917D
:100C70000023002200990198FFF7AEFF00BF03B0E8
:100C80005DF804FB00B587B0039002910192019BCF
:100C9000059305AA012302990398FFF79DFF00BF62
:100CA00007B05DF804FB00B587B003900291019294
:100CB0000093019B0493009B059304AA02230299CD
:100CC0000398FFF789FF00BF07B05DF804FB00B58C
:100CD00089B00390029101920093019B0593009BC0
:100CE00006930A9B079305AA032302990398FFF72B
:100CF00073FF00BF09B05DF804FB00B58BB0039033
:100D0000029101920093019B0593009B06930C9B1B
:100D100007930D9B08930E9B099305AA052302993F
:100D20000398FFF759FF00BF0BB05DF804FB00000C
:100D3000054B5A68044B1B689A420CBF01230023E1
:100D4000DBB21846704700BF8801002000B599B09B
:100D5000FFF7EEFF0346002B01D00023AFE1994BD4
:100D60000022C3F81824BFF34F8F00BF954B5B6878
:100D70000493944B9B681093049A109B1340023386
:100D80009B00904A134404331293002317930023CB
:100D9000169300230F9304AB19461298FFF730FD0A
:100DA0000346002B14D0874B1A68049B9A4205D83F
:100DB000844B1B68834A5360002380E1049A109B94
:100DC000134002339B007F4A134404331293E2E73B
:100DD00000BF0023159311E0049B5A1C0492109A43
:100DE0001340159A920001A90A44764902339B00E8
:100DF0000B445B681360159B01331593159B012B06
:100E0000EAD99DF8043003F00303DBB2022B40F073
:100E10009C80BDF80630C3F389139BB20D93BDF8D7
:100E20000630C3F389139BB2502B28BF50239BB2CB
:100E30000C930C9BC3F309039AB2BDF8063062F31E
:100E40008F13ADF806300C9B08330B939DF80430DC
:100E5000C3F3C203DBB20F930B995B4801F015FAA1
:100E60001790179B002B00F0D180179801F09EFA85
:100E700001A9169B0822179801F044FB169B083322
:100E80001693049BDA43109B134001339B000A9393
:100E90000C9A0A9B9A4242D90A9B002B08D0049ACA
:100EA000109B134002339B00464A1344043300E076
:100EB000464B08930A9B002B02D00A9BDBB201E051
:100EC0000C9BDBB28DF81F300A9B002B01D03F4BEF
:100ED00000E0002306930A9B002B06D00C9BDAB29D
:100EE0000A9BDBB2D31ADBB200E000238DF8173087
:100EF0009DF81F20169B0899179801F003FB9DF899
:100F00001F30169A13441693069B002B16D09DF89B
:100F10001720169B0699179801F0F4FA0EE0049A30
:100F2000109B134002339B00264A13440433099359
:100F3000169B0C9A0999179801F0E4FA0D9B03335C
:100F40009A08049B1344049360E09DF8043003F076
:100F50000303DBB2012B59D1BDF80430C3F3831373
:100F6000DBB2062B28BF0623DAB2BDF8043062F3E9
:100F70008913ADF80430BDF80430C3F38313DBB23A
:100F800002330E939DF80430C3F3C203DBB20F9318
:100F90000E9B9B0019460C4801F077F91790179BA0
:100FA000002B33D0179801F001FA01A9169B0822F3
:100FB000179801F0A7FA169B083316930023159390
:100FC0001BE000BF88010020844300009401002042
:100FD000049B5A1C0492109A134002339B003A4A15
:100FE0001344191D169B0422179801F08BFA169BC7
:100FF00004331693159B01331593BDF80430C3F3E6
:101000008313DBB21A46159B9342E1D3179B002B47
:1010100038D02D4BD3F8103414932B4BD3F818340D
:10102000002B1AD0179801F0D0F942E000238DF878
:101030004F301498FFF7FFFA0346002B02D001232C
:101040008DF84F309DF84F30002B03D0179914982E
:10105000FFF7B0FA149B5B681493149B002BE5D147
:10106000179801F0B2F9002000F050FB164BD3F8AE
:101070001834002B02D1049B134A5360002000F067
:1010800059FB16E0104BD3F81034119305E011987A
:10109000FFF7AAFA119B5B681193119B002BF6D105
:1010A0000A4B1B881B0443F0020309491846FFF74B
:1010B000DBFDFFF73DFE034683F00103DBB218467C
:1010C00019B05DF804FB00BF88010020100000206B
:1010D000E044000000B585B00023039322E0164BE6
:1010E000D3F81034029301238DF807300EE00298F4
:1010F000FFF792FA03461A46039B934203D100235B
:101100008DF8073005E0029B5B680293029B002B81
:10111000EDD19DF80730002B01D0039B07E0039B26
:1011200001330393039B092BD9DD4FF0FF3318469E
:1011300005B05DF804FB00BF8801002000B585B054
:1011400001900B468DF80330FFF7C4FF0390039B1B
:10115000B3F1FF3F01D1039B1EE0039BDBB21946B5
:101160000198FFF74DFA0E4BD3F81034002B07D13E
:101170000B4A019BC2F81034019B00225A600AE01E
:10118000074BD3F810345A68019B5A60044BD3F8CC
:101190001034019A5A60039B184605B05DF804FBB1
:1011A0008801002000B583B00C4BD3F810340193B4
:1011B0000A4B012283F8202408E00198FFF733FA54
:1011C0000198FFF705FA019B5B680193019B002BD7
:1011D000F3D100BF00BF03B05DF804FB880100201D
:1011E00082B00190009100BF02B0704710B584B08A
:1011F00003900291039BDB88002B0AD0039BDB88C2
:101200001A461F4B009313461E4A1F49029800F0CE
:101210008DFC039B1B7A052B2ED0039B5B7A002B46
:1012200012D0039B9B881A46039B1B7A19461046D3
:10123000FFF7AEFA03461A46144B53F822301A460B
:101240001349029800F072FC039B1B681946029830
:10125000FFF7C6FF039B1B7A1A460E4B53F822403A
:10126000039B9B8800211846FFF772FA034622462B
:101270000949029800F05AFC00BF04B010BD00BF3D
:1012800014450000244500005C45000038000020A3
:1012900074450000240000207845000000B585B0AA
:1012A0000390029113468DF80730039B1B7A052BA0
:1012B0000FD0039B5B7A002B06D00D4B1B681A46A0
:1012C0000C49029800F032FC0B49029800F02EFC09
:1012D00007E09DF80730002B03D00749029800F083
:1012E00025FC029800F000FC00BF05B05DF804FB8F
:1012F00038000020744500008445000030B58BB0F4
:1013000007900691059204930E9B1B7B8DF8273066
:101310000E9B00221A730E990498FFF767FF059B36
:10132000062B7FD801A252F823F000BF491300001A
:10133000531300006313000077130000951300009F
:10134000BD130000ED13000007990E9800F0EEFBAE
:1013500069E0069B1B681A4607990E9800F0E6FBA9
:1013600061E0069B1A68069B04331B6807990E9878
:1013700000F0DCFB57E0069B1A68069B04331968F3
:10138000069B08331B6800930B4607990E9800F0E4
:10139000CDFB48E0069B1968069B04331868069B42
:1013A00008331B68069A0C321268019200930346B8
:1013B0000A4607990E9800F0B9FB34E0069B1868BE
:1013C000069B04331C68069B08331B68069A0C3284
:1013D0001268069910310968029101920093234620
:1013E000024607990E9800F0A1FB1CE0069B1C68C2
:1013F000069B04331D68069B08331B68069A0C3253
:101400001268069910310968069814300068039034
:101410000291019200932B46224607990E9800F004
:1014200085FB00E000BF00220E990498FFF736FF0D
:101430000E9B9DF827201A7300BF0BB030BD00BF74
:1014400000B587B00390029101920093029B082B94
:101450005CD8009B1B7B8DF81330009B00221A7315
:1014600000990198FFF7C2FE0023059314E0059A46
:10147000029B9A4209D2039A059B13441B781A4691
:101480002449009800F052FB03E02349009800F043
:101490004DFB059B01330593059B072BE7D91F499E
:1014A000009800F043FB0023059322E0059A029B7D
:1014B0009A4217D2039A059B13441B788DF8123079
:1014C0009DF81230184602F0C5FE0346002B02D0EC
:1014D0009DF8123000E02E231A461149009800F0C2
:1014E00025FB03E00F49009800F020FB059B01332A
:1014F0000593059B072BD9D9012200990198FFF785
:10150000CDFE009B9DF813201A7300E000BF07B0CA
:101510005DF804FB884500009045000094450000FC
:10152000984500009C45000086B00390029101920E
:1015300001238DF817309DF81730214A039B136063
:101540001F4A029B53601E4A019B9360039B44F217
:101550000102934213D0039B44F20202934221D131
:10156000019B174AD360164BDB681B881A46144B45
:101570009A61134BDB685B68114AD36112E0019BEF
:101580000F4A13610E4B1B699B680D4A53610C4B4C
:101590001B691B680A4A9361094B1B695B68084A0F
:1015A000D36100BF72B600BF00BF9DF81730DBB239
:1015B000002BFAD162B600BF00BF06B0704700BF73
:1015C000AC05002000B583B002900091019244F276
:1015D000010071466A4600F003F803B000BD00BF89
:1015E00030B58BB007900691059272B600BFFFF739
:1015F000D9FD00BFFFF7AAFB0346002BFAD1079BDA
:1016000044F20102934215D0079B44F20202934236
:101610003AD1059B0993294B1B881B0443F0010316
:101620001846099B5B681A46099B1B882449FFF7EB
:101630003AFB34E0059B0893204B1B881B0443F0C6
:1016400001031D46089B9C68089B9B68184600F098
:101650007DFF03461846089B5B681946089B1B687C
:10166000069A0292019300910346224615492846A4
:10167000FFF743FB114B1B881B0443F00103124986
:101680001846FFF7F1FA0AE00C4B1B881B0443F0E5
:101690000103069A0D491846FFF7F4FA00BF0C4BF8
:1016A0001B6803F00103002B00D000BE059A0699C9
:1016B0000798FFF739FF00BF0BB030BD10000020C6
:1016C000A0450000BC450000E4450000F8450000CE
:1016D000F0ED00E072B600BF034B1B680133024A15
:1016E000136000BF704700BFCC050020064B1B688D
:1016F000013B054A1360044B1B68002B01D162B605
:1017000000BF00BF704700BFCC05002000B583B00C
:10171000019000F025F80346012B03D00449432033
:1017200000F03BF8FFF7D6FF00BF03B05DF804FB05
:101730001046000000B583B003468DF8073000F076
:101740000FF80346012B03D00449512000F025F87F
:10175000FFF7CCFF00BF03B05DF804FB10460000AC
:1017600084B0EFF305830193019BC3F30803039354
:10177000039B002B0DD1EFF314830093009B029386
:10178000029B03F00103002B0CBF01230023DBB2FB
:1017900000E00123184604B0704700B585B0034649
:1017A0000091ADF80630BDF80630ADF80830009B6A
:1017B000039302AB1A46002144F20200FFF710FF28
:1017C00000BF05B05DF804FB10B487B00190009134
:1017D000019B009A53E8004F104643E8000191F046
:1017E000000FF7D1059404900391059B184607B0AC
:1017F0005DF8044B704710B487B001900091019BD5
:10180000009A53E8004F44EA020043E8000191F0D7
:10181000000FF6D1059404900391049B184607B07D
:101820005DF8044B704710B487B001900091019BA4
:10183000009A53E8004F04EA020043E8000191F0E7
:10184000000FF6D1059404900391059B184607B04C
:101850005DF8044B704710B487B001900091019B74
:10186000009A53E8004F04EB020043E8000191F0B6
:10187000000FF6D1059404900391049B184607B01D
:101880005DF8044B704710B487B001900091019B44
:10189000009A53E8004FA4EB020043E8000191F0E6
:1018A000000FF6D1059404900391049B184607B0ED
:1018B0005DF8044B704700B583B001900121019899
:1018C000FFF799FF0346184603B05DF804FB00B527
:1018D00083B0019000210198FFF7A5FF0346184649
:1018E00003B05DF804FB000000B583B001900B4627
:1018F0008DF80330019B002B03D10849E820FFF746
:101900004CFF019BDA689DF803300199898A01FB3D
:1019100003F31344184603B05DF804FB7C46000053
:1019200000B583B001900091019B002B03D10849C1
:10193000F520FFF732FF009B019AD2689B1A019AAB
:10194000928AB3FBF2F3DBB2184603B05DF804FBF6
:101950007C46000000B585B00190019B002B01D1B1
:101960000E234CE0019B1B68002B03D12649FF206E
:10197000FFF713FF019B5B68002B04D122494FF452
:101980008070FFF70AFF019B9B68002B04D11E4962
:1019900040F20110FFF701FF019BDB68002B04D12F
:1019A00019494FF48170FFF7F8FE019B9B8A002BC9
:1019B00004D1154940F20310FFF7EFFE019B9A682E
:1019C000019B5B68D31A8DF80F30019B1B68019A4D
:1019D00052681A6007E0019B1A681368591C11606D
:1019E0009DF80F201A709DF80F305A1E8DF80F20A9
:1019F000002BF0D1019B1B6800221A7100231846AE
:101A000005B05DF804FB00BF7C46000000B585B062
:101A10000190019B002B04D11C494FF49270FFF7F9
:101A2000BCFE002303930020FFF770FE019B1B68A0
:101A30001A68019B5B689A421FD9019B1B681A6850
:101A4000013A1A601B681B7819460198FFF74CFF92
:101A50000390019B9A68019B1B681B68D31A8DF841
:101A60000B30019B1B681B799DF80B209A4204D90F
:101A7000019B1B689DF80B201A710020FFF75AFE8E
:101A8000039B184605B05DF804FB00BF7C460000D0
:101A900010B584B001900091019B002B04D1114935
:101AA00040F24710FFF779FE009B002B04D10D494F
:101AB0004FF4A470FFF771FE009B03930020FFF723
:101AC00025FE019B1B681C68621C1A600399019823
:101AD000FFF726FF034623700020FFF72BFE00BF11
:101AE00004B010BD7C46000000B583B00190019B9E
:101AF000002B03D10C493120FFF74FFE019B9B685F
:101B0000002B0CD0019B5B69019A1069019A116846
:101B1000019A92689847019B00229A6000E000BFFA
:101B200003B05DF804FB00BFE44600000EB400B54E
:101B300084B00190019B002B03D118494220FFF78C
:101B40002CFE019B5B69002B03D114494320FFF756
:101B500024FE019B1B68002B03D110494420FFF792
:101B60001CFE019B5B68002B03D10C494520FFF74D
:101B700014FE059B002B0AD00023039306AB0393AE
:101B800003AB1A460599019800F0B0F900E000BFD8
:101B900004B05DF804EB03B0704700BFE4460000FA
:101BA00000B583B001900B468DF80330019B1A6895
:101BB000019B9B68581C0199886013449DF8032081
:101BC0001A70019B9A68019B5B689A4202D3019844
:101BD000FFF78AFF00BF03B05DF804FB00B587B0D4
:101BE000039002910192009300230593009B03F060
:101BF0000103002B24D00BE0029B01330293059BD1
:101C0000013305939DF8133019460398FFF7C8FF79
:101C1000029B1B788DF813309DF81330002BEBD10D
:101C200006E0019B013B019320210398FFF7B8FFD9
:101C3000019A059B9A422ED9019B002BF1D12AE0F3
:101C4000029B002B0BD0029802F054FB059006E09B
:101C5000019B013B019320210398FFF7A1FF019A0B
:101C6000059B9A420FD9019B002BF1D10BE0029BFF
:101C700001330293059B013305939DF813301946F8
:101C80000398FFF78DFF029B1B788DF813309DF8AA
:101C90001330002BEBD100BF07B05DF804FB000050
:101CA00000B589B00390029101920093029B0793C3
:101CB0000123069307E0079A019BB2FBF3F3079316
:101CC000069B01330693079A019B9A42F3D2009A2E
:101CD000069B9A4201D9009B06930B9B03F00103DC
:101CE000002B22D10A9B002B1FD00B9B03F0020379
:101CF000002B06D0009B002B03D130238DF817302A
:101D000002E020238DF8173008E00A9B013B0A937C
:101D10009DF8173019460398FFF742FF0A9B002BE6
:101D200003D0069A0A9B9A42EFD301230793009BA4
:101D3000012B03D9009B013B009309E0029A079B0A
:101D4000B2FBF3F30493049A019B9A4200D205E09C
:101D5000079B019A02FB03F30793E8E7029A079BAC
:101D6000B2FBF3F30493049B079A02FB03F3029A7A
:101D7000D31A0293154A049B13441B7819460398FF
:101D8000FFF70EFF079A019BB2FBF3F30793079B44
:101D9000002BE3D10B9B03F00103002B11D00A9B16
:101DA000002B0ED006E00A9B013B0A9320210398EA
:101DB000FFF7F6FE0A9B002B03D0069A0A9B9A4275
:101DC000F1D300BF09B05DF804FB00BFA4470000D9
:101DD00000B589B00590049103920293049B002BF7
:101DE000B8BF5B4206930123079307E0039B069A63
:101DF00092FBF3F30693079B01330793039B069A29
:101E00009A42F3DA029A079B9A4201D9029B0793FE
:101E10000A9B002B0AD0049B002B04DB0B9B03F0D6
:101E20000403002B02D00A9B013B0A930B9B03F097
:101E30000203002B02D0029B002B16D00B9B03F059
:101E40000103002B11D10A9B002B0ED006E00A9B48
:101E5000013B0A9320210598FFF7A2FE0A9B002B65
:101E600003D0079A0A9B9A42F1D3049B002B07DA0E
:101E7000049B5B4204932D210598FFF791FE08E037
:101E80000B9B03F00403002B03D02B210598FFF7D5
:101E900087FE0B9B03F00203002B19D00B9B03F072
:101EA0000103002B14D1029B002B11D10A9B002BA4
:101EB0000ED006E00A9B013B0A9330210598FFF7FC
:101EC0006FFE0A9B002B03D0079A0A9B9A42F1D31C
:101ED00004990B9B01930A9B0093029B039A05981C
:101EE000FFF7DEFE00BF09B05DF804FB00B58FB060
:101EF000059004910392059B002B04D1B6494FF441
:101F00009F70FFF74AFC059B5B69002B04D1B24927
:101F10004FF4A070FFF741FC059B1B68002B04D118
:101F2000AD4940F24110FFF738FC059B5B68002B80
:101F300004D1A9494FF4A170FFF72FFC049B002B9B
:101F400000F09381049B1B788DF83730049B01339C
:101F500004939DF83730002B00F07E819DF83730D8
:101F6000252B40F06D8100230A9301230C93049BE1
:101F70001B788DF837309DF83730302B0DD0302B53
:101F80001BDC2B2B11D02D2B17D10A9B43F0010307
:101F90000A93049B0133049312E00A9B43F002036B
:101FA0000A93049B013304930AE00A9B43F0040361
:101FB0000A93049B0133049302E000230C9300BFB7
:101FC0000C9B002BD3D1002309939DF837302A2B8B
:101FD0000CD1039B1B68191D039A11601B68099A99
:101FE00013440993049B013304931AE0049B1B7868
:101FF0008DF837309DF837302F2B12D99DF83730B8
:10200000392B0ED8049B01330493099A13469B0085
:1020100013445B001A469DF837301344303B099354
:10202000D3E700230B93049B1B788DF837309DF882
:1020300037302E2B1DD1049B01330493049B1B7856
:102040008DF837309DF837302F2B12D99DF8373067
:10205000392B0ED8049B013304930B9A13469B0033
:1020600013445B001A469DF837301344303B0B9302
:10207000E4E7049B1B788DF837309DF837306C2BE4
:1020800003D09DF83730682B07D1049B01330493AC
:10209000049B1B788DF83730EFE79DF83730252B00
:1020A00000F0C480252BC0F2C680782B00F3C380DB
:1020B000582BC0F2C080583B202B00F2BC8001A2FC
:1020C00052F823F0B321000037220000372200002D
:1020D000372200003722000037220000372200009C
:1020E000372200003722000037220000372200008C
:1020F000492100006B210000372200003722000038
:1021000037220000372200006B2100003722000038
:10211000372200003722000037220000372200005B
:1021200037220000F921000037220000372200008A
:10213000DD210000372200008F210000372200003F
:1021400037220000B3210000039B1B68191D039A6E
:1021500011601B680C930C9B8DF81F309DF81F308D
:1021600019460598FFF71CFD66E0039B1B68191DC7
:10217000039A11601B680C930A9B0193099B0093BF
:102180000B9B0A220C990598FFF722FE54E0039B53
:102190001B68191D039A11601B680C930C990A9B0C
:1021A0000193099B00930B9B0A220598FFF778FD8A
:1021B00042E0039B1B68191D039A11601B680C9376
:1021C0000C990A9B0193099B00930B9B1022059885
:1021D000FFF766FD30E000BF40470000039B1B682F
:1021E000191D039A11601B6808930A9B099A0899A4
:1021F0000598FFF7F3FC1FE0039B1B68191D039A6A
:1022000011601B680C9330210598FFF7C9FC7821F9
:102210000598FFF7C5FC0C99002301930823009350
:10222000082310220598FFF73BFD05E025210598BE
:10223000FFF7B6FC00E000BF049B0133049305E008
:102240009DF8373019460598FFF7AAFC049B1B78C8
:10225000002B7FF477AE00E000BF059B1B7B002BBB
:1022600004D00598FFF740FC00E000BF0FB05DF818
:1022700004FB00BF00B583B001900198FFF76AFB33
:102280000346184603B05DF804FB00B58BB001901F
:102290000091019B9B8A043B0793009A079B134480
:1022A000DA1C079BB2FBF3F38DF81B300198FFF7A4
:1022B000ADFB0590059B002B01D1002338E0059B69
:1022C00000221A71059B01225A71079B9AB2059B45
:1022D000DA80059B09939DF81B30013B0493099B11
:1022E000019A1A60002308931DE00198FFF78EFB06
:1022F0000390039B002B0ED0059B5B790133DAB270
:10230000059B5A71099B039A1A60039B019A1A60F4
:10231000039B099304E0059800F00EF8002307E002
:10232000089B01330893089A049B9A42DDD3059BCE
:1023300018460BB05DF804FB00B58BB00190019B13
:102340000793079B5B798DF81B30019B08939DF8E1
:102350001B30013B05930023099305E0089B1B6894
:102360000893099B01330993099A059B9A42F5D377
:10237000089B1B680493019B0893002309930BE0BF
:10238000089B1B68039308990498FFF781FB039B44
:102390000893099B013309939DF81B30099A9A42CF
:1023A000EED300BF00BF0BB05DF804FB00B585B0F5
:1023B0000190019B0393039B043301211846FFF70F
:1023C0004AFA00BF05B05DF804FB00B587B0019084
:1023D000019B0593059B043301211846FFF753FA2F
:1023E0000346039303AB0493049B1B78002B02D199
:1023F0000198FFF7A1FF00BF07B05DF804FB0000E4
:1024000000B58DB00390029101920093039B069357
:10241000069BDB880593039B0B93009B1A1D059B72
:10242000B2FBF3F30A93009B0433059AB3FBF2F279
:10243000059901FB02F29B1A0993009A019B1A4429
:10244000059B1344DA1C059BB2FBF3F38DF81330A4
:10245000069B5B799DF813209A420AD92849BA2035
:10246000FFF79BF905E00B9B1B680B930A9B013B55
:102470000A930A9B002BF6D100230893059A099B27
:10248000D31A0793079A019B934228BF13460793D9
:102490002DE09DF83830002B0BD0029A089BD01805
:1024A0000B9A099B13440433079A194601F0D7FE8F
:1024B0000AE00B9A099B1344181D029A089B1344C7
:1024C000079A194601F0CBFE002309930B9B1B686A
:1024D0000B93019A079BD31A0193089A079B134405
:1024E0000893059A019B934228BF13460793019BCB
:1024F000002BCED100BF00BF0DB05DF804FB00BFC4
:10250000B447000000B587B0059004910392029390
:1025100000230093029B039A04990598FFF770FF2C
:1025200000BF07B05DF804FB00B587B005900491CB
:102530000392029301230093029B039A0499059846
:10254000FFF75EFF00BF07B05DF804FB00B585B084
:102550000190019800F00EF80390039B002B01D02E
:10256000039B00E0024B184605B05DF804FB00BF7A
:102570002848000086B00190164B0593164B049333
:102580001FE0049A059BD31ADB10DA0F13445B108B
:10259000DB00059A13440393039B1B680293029A82
:1025A000019B9A4202D9039B04930AE0029A019B81
:1025B0009A4203D2039B0833059302E0039B5B68B6
:1025C00004E0059A049B9A42DBD30023184606B028
:1025D000704700BFFC4B0000144D000000B585B0F3
:1025E0000190019B002B0AD0074B43F0010303939A
:1025F000019B9B010293039B0298984700E000BF58
:1026000005B05DF804FB00BF504D000000B583B07D
:102610000190019B1B682F2B04D90B4940F2C71076
:10262000FFF7BBF8019B1B681F2B02D84FF0A0439C
:1026300006E0019B1B6803F01F02019B1A60034B1D
:10264000184603B05DF804FB144D00000003005071
:1026500000B585B0019001AB1846FFF7D7FF039096
:10266000019B012202FA03F31946039800F035F8A2
:1026700000BF05B05DF804FB00B585B0019001AB6B
:102680001846FFF7C3FF0390019B012202FA03F3F0
:102690001946039800F02BF800BF05B05DF804FB65
:1026A00000B585B0019001AB1846FFF7AFFF03906E
:1026B000039800F00AF80246019B22FA03F303F0A4
:1026C0000103184605B05DF804FB82B00190019B40
:1026D000D3F81035184602B0704782B001900091CF
:1026E000019B009AC3F8082500BF02B0704782B072
:1026F00001900091019B009AC3F80C2500BF02B025
:10270000704700B585B001904FF0A042019B1B6857
:1027100003F5E07340F20C6142F823104FF0A04241
:10272000019B5B6803F5E07340F20C6142F82310F3
:10273000019B1B681846FFF78BFF019B5B681846DF
:10274000FFF786FF4FF0A042019B1B6803F5E07383
:1027500040F20D6142F823104FF0A042019B5B68EC
:1027600003F5E07340F20D6142F823100420FFF7F7
:1027700035FF002303931EE0019B5B681846FFF7BB
:102780008FFF0346002B03D0039B002B17D124E0BF
:10279000019B1B681846FFF76FFF0420FFF71EFF21
:1027A000019B1B681846FFF753FF0420FFF716FF35
:1027B000039B01330393039B082BDDDD00E000BF87
:1027C000019B5B681846FFF757FF0420FFF706FFE1
:1027D000019B5B681846FFF73BFF05B05DF804FB03
:1027E00000B589B001900091009B0793019B1B7875
:1027F0008DF80C30019B1B798DF81030019B5B79B3
:102800008DF81130019B9B68DBB28DF81230019B73
:10281000DB68DBB28DF81330019B1B690593019BCC
:102820005B690693074A079B52F823300649079ACB
:1028300051F8221003AA1046984700BF09B05DF86E
:1028400004FB00BFD0050020D805002000B587B0EC
:102850000390029101920093039B1B780593124908
:10286000059B019A41F823201049059B009A41F8E5
:102870002320029B5B7B002B02D00298FFF741FFD5
:1028800000230493039B181D019B002B01D0084AD1
:1028900000E00022059B029900F05AFA0490049B84
:1028A000184607B05DF804FBD0050020D8050020CD
:1028B000E127000008B5064B1B68002B03D1054932
:1028C0005120FEF76AFF024B1B68984700BF08BD06
:1028D000E00500205C4D000082B00190019B044A9D
:1028E000934201D1034B00E00023184602B0704729
:1028F00000200040E005002000B587B00190009165
:10290000019B002B03D118497720FEF746FF019861
:10291000FFF7E2FF0590059B002B1ED000238DF8EA
:1029200013300020FEF7F2FE059B1B79002B03D02D
:1029300001238DF8133005E0059B009A1A60059B72
:1029400001221A710020FEF7F5FE9DF81330002BCE
:1029500003D011230393039B02E000230393039B03
:10296000184607B05DF804FB5C4D000082B00346DA
:102970008DF807309DF8073003F01F0205499DF9D7
:1029800007305B09012000FA02F241F8232000BF62
:1029900002B0704700E100E082B003468DF80730D6
:1029A0009DF8073003F01F0206499DF907305B09C7
:1029B000012000FA02F2603341F8232000BF02B088
:1029C000704700BF00E100E082B0034600918DF83F
:1029D00007309DF90730002B0CDA009BDAB20C4966
:1029E0009DF8073003F00F03043B5201D2B20B44B1
:1029F0001A7609E0009BDAB206499DF907305201C8
:102A0000D2B20B4483F8002300BF02B0704700BF6E
:102A100000ED00E000E100E082B00190019B03F0D6
:102A20006043B3F1005F0CBF01230023DBB2184603
:102A300002B0704784B00190019B1B0B8DF80F30E2
:102A40009DF90F30184604B07047000000B583B000
:102A500003460A468DF8073013468DF806309DF878
:102A60000630072B03D908496B20FEF796FE9DF828
:102A700006209DF9073011461846FFF7A5FF00BF55
:102A800003B05DF804FB00BFC04D000000B583B08B
:102A900003468DF807309DF907301846FFF77CFF95
:102AA0009DF907301846FFF761FF00BF03B05DF8DE
:102AB00004FB82B001900B468DF803309DF8033083
:102AC000019A134401221A6000BF02B0704784B01B
:102AD00001900B46ADF80230BDF80230019A134464
:102AE00000221A60BDF80230019A13441B68039358
:102AF000039B00BF04B0704782B001900B46ADF855
:102B00000230BDF80230019A13441B68002B14BF39
:102B100001230023DBB2184602B0704782B0019057
:102B20000091019B009AC3F8042300BF02B07047D4
:102B300082B001900091019B009AC3F8082300BF66
:102B400002B0704782B00190019B0622C3F80025B5
:102B500000BF02B0704784B0039002910192039BC2
:102B6000029AC3F80825039B019AC3F80C2500BFFD
:102B700004B0704782B001900091019B009AC3F8A5
:102B8000242500BF02B0704784B00190019BD3F8A8
:102B9000C4340393019B039AC3F8C424039B1846CF
:102BA00004B0704782B001900B468DF803309DF859
:102BB0000320019BC3F8882500BF02B0704784B092
:102BC000039002910192029A039BC3F84425039B50
:102BD000019AC3F8482500BF04B0704784B0039041
:102BE00002910192029A039BC3F83425039B019A38
:102BF000C3F8382500BF04B0704782B0019000913F
:102C0000019B009AC3F8002200BF02B0704782B057
:102C10000190019BD3F84C35184602B0704782B042
:102C20000190019BD3F83C35184602B0704782B042
:102C30000190019B0122C3F8502500BF02B07047EC
:102C400082B00190019B0022C3F8502500BF02B062
:102C5000704782B00190019B0122C3F8402500BF5C
:102C600002B0704782B00190019B0022C3F840255A
:102C700000BF02B07047000000B583B00190019B17
:102C80001B682F2B04D90B4940F2C710FEF785FDB6
:102C9000019B1B681F2B02D84FF0A04306E0019B4D
:102CA0001B6803F01F02019B1A60034B184603B018
:102CB0005DF804FBF04D00000003005000B585B046
:102CC0000190084611461A4603468DF803300B461C
:102CD0008DF8023013468DF8013001AB1846FFF72E
:102CE000CBFF03909DF803209DF802305B001A4350
:102CF0009DF801309B001A439DF818301B0242EAF0
:102D000003019DF81C301B04019A1943039B02F533
:102D1000E07243F8221000BF05B05DF804FB84B0F8
:102D2000019003230393019B03F00203002B02D0C5
:102D300048F201230393019B03F00403002B02D00C
:102D400048F202230393039B184604B07047000027
:102D500000B58BB00590049103920293049B002B65
:102D600003D14A499820FEF718FD049B1A68049B7A
:102D70005B689A4203D145499920FEF70EFD059BF9
:102D80001B791A46342303FB02F3414A1344089388
:102D9000089B93F82D30002B03D008230793079B43
:102DA00070E0059B1A68059B1B791946394B53F84F
:102DB000213019461046FFF79FFD0346002B03D034
:102DC00011230793079B5DE0089B039A1A60089BF9
:102DD000029A5A60089B00229A60089B002283F89E
:102DE0003020089B002283F82F20049B5A7B089BED
:102DF00083F83220049B1868002301930623009374
:102E0000032300220021FFF759FF049B5868002389
:102E1000019306230093032300220021FFF74EFFB6
:102E2000059B1B680993049B1968049B5B681A4601
:102E30000998FFF790FE049B9B6819460998FFF7D5
:102E400099FE089B1B68002B15D0059B1B68184634
:102E5000FFF7F0FD03461A46049B1B7B19461046FC
:102E6000FFF7F4FD059B1B681846FFF7E3FD0346DB
:102E70001846FFF70BFE089B012283F82D20002344
:102E80000793079B18460BB05DF804FB284E000023
:102E9000E80500208C4E000000B585B00190019B34
:102EA0001B791A46342303FB02F30C4A13440393A1
:102EB000039B93F82D30012B03D00949FA20FEF72C
:102EC0006CFC019B1B681846FFF73CFE039B02222B
:102ED00083F82D2000BF05B05DF804FBE805002055
:102EE000284E000000B583B001900091009B03F0D4
:102EF0000103002B03D00198FFF799FE02E001982F
:102F0000FFF79EFE009B03F00203002B03D0019805
:102F1000FFF79FFE02E00198FFF7A4FE00BF03B099
:102F20005DF804FB30B589B00390029101920093E3
:102F30000023069308238DF81F304FF48273ADF8F9
:102F40001C30019BDB681846FFF766FD034683F0E3
:102F50000103DBB2002B03D010230693069B9EE1F6
:102F6000B1490298FFF7E4FD039B93F82F30DBB2E1
:102F7000002B09D0039B9B6819460298FFF7CEFDF2
:102F800011230693069B8AE1009B03F00403002BA8
:102F900006D1009B03F01003002B01D1012300E0B8
:102FA000002303F00103DAB2039B83F82F20039B75
:102FB000019A03F10C0415460FCD0FC42B68236052
:102FC000009B1B0903F00103002B14BF0123002306
:102FD000DAB2039B83F83020019B5B781946029894
:102FE000FFF7E0FD4FF482710298FFF770FD4FF498
:102FF00092710298FFF76BFD00990298FFF772FF3C
:10300000019B1B78032B00F2E88001A252F823F009
:103010004F310000A9310000FD30000021300000D8
:10302000009B03F01003002B04D080494FF4AD70D7
:10303000FEF7B3FB009B03F00803002B04D07B4991
:1030400040F25B10FEF7A9FB009B03F00403002B8A
:1030500004D076494FF4AE70FEF79FFB019B1B69CD
:103060001846FFF7D9FC034683F00103DBB2002BBF
:1030700003D010230693069B11E14FF48071029850
:10308000FFF7BBFD019BD968019B5B681A4602985C
:10309000FFF795FD4FF4A8710298FFF718FD4FF464
:1030A000B0710298FFF713FD4FF4A4710298FFF777
:1030B0000EFD20210298FFF7FCFC08210298FFF783
:1030C000F8FC00BF4FF4A8710298FFF715FD034606
:1030D00083F00103DBB2002BF4D14FF4A871029806
:1030E000FFF7F5FC019B1969019B9B681A46029842
:1030F000FFF765FD039B4E4A9A6071E0019BD9681A
:10310000019B5B681A460298FFF759FD019B1B69FA
:103110001846FFF781FC034683F00103DBB2002B66
:1031200003D010230693069BB9E0019B1969019B0C
:103130009B681A460298FFF751FD4FF4845102989C
:10314000FFF75BFD039B40F202229A6048E0019B7F
:10315000D968019B5B681A460298FFF730FD009B17
:1031600003F02003002B11D04FF480710298FFF779
:1031700044FD039B2E4A9A604FF4A4710298FFF716
:10318000A6FC4FF4A473ADF81C3008E04FF40071B6
:103190000298FFF732FD039B40F202229A60202141
:1031A0000298FFF786FC1BE0019BD968019B5B68D6
:1031B0001A460298FFF712FD4FF480510298FFF76C
:1031C0001CFD039B40F202229A6000238DF81F3001
:1031D00020210298FFF76DFC02E00723069300BF51
:1031E000009B03F00803002B09D1019B1B78032BE4
:1031F00005D09DF81F3019460298FFF75AFC039B33
:103200001B68002B2FD0009B03F00403002B03D07E
:10321000039B4FF400729A60039B9B6819460298C7
:10322000FFF77CFC3AE000BF02029C01284E000040
:10323000000204004FF492710298FFF75DFC034610
:10324000002B10D04FF492710298FFF740FC202120
:103250000298FFF72EFC14210298FFF72AFC4FF486
:103260008273ADF81C30BDF81C3019460298FFF788
:1032700043FC034683F00103DBB2002BDAD1029852
:10328000FFF782FC0590039B002283F82F20059B0B
:10329000002B03D00598FFF742FD0690069B1846C9
:1032A00009B030BD00B587B0039002910192039B35
:1032B0001B79002B09D1029B5B68B3F5803F04D2D8
:1032C000029B9B68B3F5803F04D31B494FF4EB701E
:1032D000FEF763FA00230493039B1B791A463423F9
:1032E00003FB02F3154A13440593059B1B68002B4F
:1032F00008D1029B1B78022B04D10F494FF4EF70C9
:10330000FEF74BFA059B1B68002B08D1029B1B782C
:10331000032B04D1084940F2DF10FEF73EFA039B6D
:103320001968019B029A0598FFF7FCFD0490049B25
:10333000184607B05DF804FB284E0000E8050020A1
:1033400000B58BB00390019200930B468DF80B30C3
:1033500005AB00221A605A609A60DA601A619DF823
:103360000B308DF81530009B0693019B08939DF858
:103370003030002B01D0202200E0002205AB19469E
:103380000398FFF78FFF034618460BB05DF804FB68
:1033900000B58BB00390019200930B468DF80B3073
:1033A00005AB00221A605A609A60DA601A61012344
:1033B0008DF814309DF80B308DF81530009B069376
:1033C000019B089305AB002219460398FFF76AFF9B
:1033D000034618460BB05DF804FB000030B58BB017
:1033E00001900091009B1B68002B04D17E4940F2A4
:1033F0002D20FEF7D2F94FF492710198FFF77CFB74
:103400000346002B27D04FF492710198FFF75FFB22
:103410004FF482710198FFF76FFB034683F00103BD
:10342000DBB2002B17D0009B9B6819460198FFF771
:103430007FFB009B02229A60009B9B6819460198C3
:10344000FFF76CFB20210198FFF733FB1421019853
:10345000FFF72FFBC5E04FF482710198FFF74CFB9B
:103460000346002B50D04FF482710198FFF72FFBD9
:10347000009B04AC03F10C050FCD0FC42B68236037
:10348000009B93F82E30002B1BD0009B1B7B012B45
:1034900004D10198FFF7C3FB034603E00198FFF74F
:1034A000B6FB03460593009B1B7B022B04D10198BE
:1034B000FFF7B5FB034603E00198FFF7A8FB0346BF
:1034C00006934FF4B0710198FFF701FB4FF4AE7112
:1034D0000198FFF7FCFA009B93F8303083F001036A
:1034E000DBB2002B04D1009B93F82E30002B4CD084
:1034F00000210198FFF781FB009B00229A603B4965
:103500000198FFF715FB40E04FF4A4710198FFF715
:10351000DEFA009B1B7B002B1BD1009B04AC03F14C
:103520000C050FCD0FC42B682360009B93F830303F
:1035300083F00103DBB2002B27D000210198FFF7B5
:103540005CFB009B00229A6028490198FFF7F0FA83
:103550001BE04FF400710198FFF74FFB009B40F216
:1035600002229A6021490198FFF7E2FA009B9B68CA
:1035700019460198FFF7D2FA08210198FFF799FA46
:1035800020210198FFF795FA2BE00198FFF7FCFA4C
:103590000990099B03F00203002B03D001238DF84F
:1035A0000C300BE0099B03F00403002B03D0022333
:1035B0008DF80C3002E000238DF80C30009B93F85E
:1035C000303083F00103DBB2002B03D0009B0022DC
:1035D00083F82F20009B1B68009A516803AA1046AD
:1035E00098470BB030BD00BF284E000002029C017E
:1035F00008B503490348FFF7F1FE00BF08BD00BF4F
:10360000E80500200030004000B585B00190019B26
:10361000002B0AD0074B43F001030393019B9B014E
:103620000293039B0298984700E000BF05B05DF845
:1036300004FB00BF8051000000B583B00190019BE6
:1036400004331846FFF728FC00BF03B05DF804FB05
:1036500000B589B0059003921A460B468DF81330D9
:1036600013468DF8123000230793059B181D9DF813
:1036700012209DF813109DF8283000931346039AEA
:10368000FFF75EFE0790079B184609B05DF804FB44
:1036900000B587B0039001921A460B468DF80B30A7
:1036A00013468DF80A3000230593039B181D9DF8DF
:1036B0000A309DF80B10019AFFF76AFE0590059BF2
:1036C000184607B05DF804FB00B583B00190019B7C
:1036D000002B0AD04FF47A70FFF796FF019B013B55
:1036E0000193019B002BF5D100E000BF03B05DF812
:1036F00004FB000000B589B00390039B1B781B02FC
:103700001AB2039B01331B781BB213431BB2ADF8F3
:103710001E30BDF81E3007EE903AB8EE677ADFED46
:10372000616AC7EE267A9FED607A67EE877A9FED31
:103730005F7A77EEC77ACDED067A5D4B1B881B0466
:1037400043F003031846DDED067AF5EEC07AF1EE9C
:1037500010FA0AD5DDED067ABFEE007AF4EEC77AEC
:10376000F1EE10FA01DD534A00E0534ADDED067A2E
:10377000FDEEE77A17EE901ADDED067AF5EEC07AE7
:10378000F1EE10FA0ADDDDED067AFDEEE77AF8EEED
:10379000E77A9DED067A77EE677A09E0DDED067A45
:1037A000FDEEE77AB8EEE77ADDED067A77EE677A36
:1037B0009FED427A67EE877AFDEEE77A17EE903A50
:1037C00000930B463E49FDF782FA039B03331B78B7
:1037D0001B021AB2039B04331B781BB213431BB2A8
:1037E000ADF81630BDF8163007EE903AB8EE677AAD
:1037F000DFED2C6AC7EE267A9FED327A67EE877A84
:10380000B1EE087A77EEC77ACDED047A284B1B88A3
:103810001B0443F003031846DDED047AF5EEC07A8D
:10382000F1EE10FA0AD5DDED047ABFEE007AF4EE7F
:10383000C77AF1EE10FA01DD1E4A00E01E4ADDED06
:10384000047AFDEEE77A17EE901ADDED047AF5EED4
:10385000C07AF1EE10FA0ADDDDED047AFDEEE77ACA
:10386000F8EEE77A9DED047A77EE677A09E0DDED10
:10387000047AFDEEE77AB8EEE77ADDED047A77EECA
:10388000677A9FED0E7A67EE877AFDEEE77A17EE9C
:10389000903A00930B460C49FDF719FA00BF09B0A6
:1038A0005DF804FB00FF7F4700002F430000344217
:1038B00010000020385000003C5000000000C842BA
:1038C000405000000000FA426850000000B583B08C
:1038D00001900091019B1B78022B1BD0022B23DC53
:1038E000002B02D0012B0BD01EE0019B1B79012B7A
:1038F00002D11448FFF7FEFE134B01221A701DE09F
:10390000124B1B881B0443F0030311491846FDF7B3
:10391000ABF913E00D4B1B881B0443F003030D4967
:103920001846FDF7A1F909E0084B1B881B0443F07A
:10393000030309491846FDF797F900BF00BF03B01C
:103940005DF804FB200600201C060020100000206B
:10395000805000009C500000B450000000B587B0BB
:103960006B4600221A605A609A60DA601B2300934B
:103970001A2301934FF0CC73029302238DF80C307D
:10398000694600230A4A0B48FEF760FF0590059B35
:103990000493049B002B04D0074A63210498FDF78D
:1039A00011FE0448FFF748FE00BF07B05DF804FBB6
:1039B000CD38000028500000CC50000000B587B082
:1039C0004AF23023ADF80C3003AA002300930223FF
:1039D00045211048FFF73CFE0590059B002B08D0C1
:1039E0000D4B1B881B0443F003030C491846FDF7DD
:1039F0003BF9059B0493049B002B04D0084A7421D7
:103A00000498FDF7DFFD6420FFF75EFE00BF07B0FE
:103A10005DF804FB28500000100000203051000029
:103A2000CC50000000B587B0184B00221A7040F24D
:103A30002C63ADF8083002AA00230093022345212D
:103A40001348FFF705FE0590059B0493049B002B8C
:103A500004D0104A8C210498FDF7B4FD6420FFF7D0
:103A600033FE06230C4A45210948FFF711FE059055
:103A7000059B0393039B002B04D0064A95210398D2
:103A8000FDF7A0FD00BF07B05DF804FB1C06002099
:103A900028500000CC5000002006002000B583B064
:103AA0004FF400410020FCF7CDFD0190019B002B5D
:103AB00004D0154A9C210198FDF784FDFCF75CFDBC
:103AC000124B1B881B0443F0030311491846FDF7F2
:103AD000CBF8FFF743FFFFF771FF4FF4FA70FFF7E2
:103AE000F3FD20BF00BF0B4B1B78DBB283F001035B
:103AF000DBB2002BF5D1FFF795FF00BFFDF726F9EC
:103B00000346002BFAD1E8E7CC500000100000205B
:103B1000545100001C06002000B583B01F4B0193D8
:103B2000019B02221A61019B02225A61019B1C4ADD
:103B30009A61019B1B4ADA61019B4FF400721A6281
:103B4000019B00229A62019B00225A62019B002283
:103B5000DA62019B124A9A64019B134ADA64019B60
:103B600010221A65019B00229A65019B00225A656A
:103B7000019B0022DA65019B07330C49184600F0CF
:103B800097FB019B0A49184600F092FB019B2022FB
:103B90009A7100BF03B05DF804FB00BF2806002047
:103BA00088510000A0060020A008002094510000C9
:103BB0009851000000B589B0039002910192002352
:103BC0000693039BDB680593039B1B690493049A8C
:103BD000059B9A4205D9049A059BD31A013B07938A
:103BE00007E0039B9A680499059BCB1A1344013B99
:103BF0000793039B9A68059BD31A079A934228BFA1
:103C000013460793079A019B934228BF13460793D5
:103C1000039B5A68059B1344079A0299184600F0C3
:103C20001EFB069A079B13440693029A079B1344B4
:103C30000293019A079BD31A0193059A079B134499
:103C40000593039B9B68059A9A4201D10023059333
:103C5000039B059ADA60019B002BB5D1069B1846A1
:103C600009B05DF804FB00B589B0039002910192A0
:103C7000039BDB680793039B9A68079BD31A069301
:103C8000069A019B9A420ED9039B5A68079B1344DC
:103C9000019A0299184600F0E2FA079A019B1A4429
:103CA000039BDA601AE0069B0593039B5A68079B07
:103CB0001344059A0299184600F0D1FA019A069B1E
:103CC000D31A0593039B5868029A069B1344059ADE
:103CD000194600F0C4FA039B059ADA6000BF09B0E8
:103CE0005DF804FB86B00190019B1B690493019B66
:103CF000DB680393049A039B9A4208D8019B9A6855
:103D0000039BD21A049B1344013B059304E0049ADD
:103D1000039BD31A013B0593059B184606B07047D9
:103D200000B589B0039002910192029B0693039B18
:103D30005A1C13465B001344DB00204A13440593CE
:103D4000059B5B69022B29D0022B2ED8002B02D0B9
:103D5000012B13D029E00598FFF7C4FF0490049AC3
:103D6000019B9A4202D20023079321E0019B079313
:103D7000019A06990598FFF776FF19E00598FFF775
:103D8000B1FF0490019A049B934228BF1346079306
:103D9000079A06990598FFF766FF09E0019A0699C8
:103DA0000598FFF707FF079002E00023079300BF85
:103DB000079B184609B05DF804FB00BF28060020E9
:103DC00008B5FFF7A9FE00BF08BD0000BFF34F8F85
:103DD00000BF074BDB6803F4E0620549054B134362
:103DE000CB60BFF34F8F00BF00BF00BFFCE700BF39
:103DF00000ED00E00400FA05024B034A1A6000BF20
:103E0000704700BF5C0000200090D00308B500F0B0
:103E100027F90346002B0ED04FF080430022C3F851
:103E20000C214FF080430022C3F810214FF0804353
:103E30000022C3F8382500F031F90346002B76D074
:103E40004FF080537D4AD3F80434C2F820354FF048
:103E500080537A4AD3F80834C2F824354FF080539F
:103E6000764AD3F80C34C2F828354FF08053734AA1
:103E7000D3F81034C2F82C354FF080536F4AD3F882
:103E80001434C2F830354FF080536C4AD3F81834EC
:103E9000C2F834354FF08053684AD3F81C34C2F866
:103EA00040354FF08053654AD3F82034C2F844358A
:103EB0004FF08053614AD3F82434C2F848354FF0AC
:103EC00080535E4AD3F82834C2F84C354FF0805303
:103ED0005A4AD3F82C34C2F850354FF08053574A21
:103EE000D3F83034C2F854354FF08053534AD3F8E6
:103EF0003434C2F860354FF08053504AD3F8383428
:103F0000C2F864354FF080534C4AD3F83C34C2F8C1
:103F100068354FF08053494AD3F84034C2F86C35C5
:103F20004FF08053454AD3F84434C2F8703500F05E
:103F3000D3F80346002B02D0414B424A1A6000F0EE
:103F4000DDF80346002B03D03F4BFB22C3F81825B6
:103F500000F0E6F80346002B0AD03C4B1B6823F028
:103F60000F023B4B1B6803F00F03384913430B60F0
:103F700000F0E8F80346002B03D0364B4FF40072F4
:103F80001A6000F0F1F80346002B0DD04FF080438B
:103F9000D3F8003403F00103002B05D04FF0804329
:103FA0006FF00102C3F800242B4BD3F888302A4A63
:103FB00043F47003C2F88830BFF34F8F00BFBFF3E4
:103FC0006F8F00BF4FF01023D3F80032002B05DBBA
:103FD0004FF01023D3F80432002B2BDA1F4B0122B1
:103FE000C3F8042500BF1D4BD3F80034002BFAD0D2
:103FF0004FF010231222C3F8002200BF174BD3F852
:104000000034002BFAD04FF010231222C3F8042200
:1040100000BF124BD3F80034002BFAD00F4B002214
:10402000C3F8042500BF0D4BD3F80034002BFAD0A1
:10403000FFF7CCFEFFF7E0FE00BF08BD00C0004068
:104040008C5600404881030000F00040E40E004020
:10405000580200104096024000ED00E000E00140F0
:104060000C4B1B68082B11D10B4B1B68002B01D18B
:1040700001230CE0084B1B68012B01D1012306E052
:10408000054B1B68022B01D1012300E001231846D8
:10409000704700BF30010010340100100C4B1B684A
:1040A000082B11D10B4B1B68002B01D101230CE015
:1040B000084B1B68012B01D1012306E0054B1B684F
:1040C000022B01D1012300E001231846704700BFF5
:1040D0003001001034010010064B1B68082B05D17D
:1040E000054B1B68002B01D1012300E0002318467B
:1040F000704700BF3001001034010010064B1B68F0
:10410000082B05D1054B1B68002B01D1012300E0D2
:1041100000231846704700BF300100103401001022
:10412000064B1B68082B05D1054B1B68002B01D1E2
:10413000012300E000231846704700BF3001001043
:1041400034010010064B1B68082B05D1054B1B687A
:10415000002B01D1012300E000231846704700BF67
:1041600030010010340100100C4B1B68082B11D1DA
:104170000B4B1B68002B01D101230CE0084B1B6883
:10418000012B01D1012306E0054B1B68022B01D155
:10419000012300E001231846704700BF30010010E2
:1041A000340100107F2805D8034B185C034B5B5C7F
:1041B0001840704700207047AC5100002C5200009E
:1041C000A0F16103192B98BF20387047A0F141037B
:1041D000192B98BF203070477F2805D8034B185CF7
:1041E000034B5B5C1840704700207047AC510000E7
:1041F0002C520000A0F16103192B98BF20387047A2
:10420000A0F14103192B98BF203070477F299ABF36
:10421000017001206FF02E0070475AB10A787F2A92
:104220000AD800B10260002119605960501A18BF05
:1042300001207047002070476FF02E00704700008B
:1042400008B5034B5B689B681B68984708BD00BFB7
:104250006000002008B50921FFF7F2FF08BD844681
:1042600040EA010313F0030F18D18446202A0BD330
:104270002DE9F007B1E8F807A0E8F807A2F120025D
:10428000202AF7D2BDE8F007042A07D351F8043BEF
:1042900040F8043BA2F10402042AF7D2002A05D018
:1042A00011F8013B00F8013B013AF9D16046704733
:1042B000024610F0030F16D111F0030F13D12DE9B0
:1042C000F0004FF001374FF0803351F8044BA4EB6E
:1042D000070525EA04051D4002D142F8044BF4E726
:1042E000A1F10401F0BC11F8013B02F8013B002BE5
:1042F000F9D1704700F1010110F0030F11D010F84F
:10430000012B002A23D010F0030F0AD010F8012B44
:10431000002A1CD010F0030F03D010F8012B002A44
:1043200015D02DE970004FF001324FF0803350F876
:10433000044BA4EB020525EA04051D4000D1F6E775
:10434000A0F1040070BC10F8012B002AFBD1A0EBF7
:0443500001007047B1
:10435400584D000000000000204E00000000000046
:10436400F04E000000000000BC4F00000000000000
:1043740060440000000003034C44000000000003FC
:1043840080010020B8000020C0000020C0000020F0
:084394001400002018000000D5
:10439C000000000000000000000000000000000011
:0843AC00000000000000000009
:1043B400090400003B040000310400000338FDD868
:1043C40070470000433A5C747261696E696E675CA1
:1043D4006E5246355F53444B5F31352E302E305F7D
:1043E400613533363431615C6E5246355F53444B2C
:1043F4005F31352E302E305F613533363431615CB8
:10440400636F6D706F6E656E74735C6C69627261FC
:10441400726965735C6578706572696D656E7461E7
:104424006C5F6C6F675C7372635C6E72665F6C6FFB
:10443400675F64656661756C745F6261636B656E0A
:1044440064732E630000000062616C6C6F632E6CF9
:104454006F675F6D656D706F6F6C000061707000E9
:10446400433A5C747261696E696E675C6E5246357C
:104474005F53444B5F31352E302E305F6135333618
:104484003431615C6E5246355F53444B5F31352E97
:10449400302E305F613533363431615C636F6D705B
:1044A4006F6E656E74735C6C696272617269657358
:1044B4005C6578706572696D656E74616C5F6C6F54
:1044C400675C7372635C6E72665F6C6F675F667263
:1044D4006F6E74656E642E63000000004261636B4E
:1044E400656E647320666C75736865640000000013
:1044F4006572726F720000007761726E696E670098
:10450400696E666F000000006465627567000000F4
:104514001B5B306D000000001B5B313B33306D00D2
:104524001B5B313B33316D001B5B313B33326D0020
:104534001B5B313B33336D001B5B313B33346D000C
:104544001B5B313B33356D001B5B313B33366D00F8
:104554001B5B313B33376D0025734C6F67732064ED
:10456400726F70706564202825642925730D0A0014
:10457400257300003C25733E2025733A200000007B
:104584000D0A000020253032780000002020200091
:104594007C000000256300002000000041535345C7
:1045A4005254494F4E204641494C454420617420A1
:1045B40025733A25750000004552524F5220257547
:1045C400205B25735D2061742025733A25750D0ADF
:1045D40050432061743A2030782530387800000048
:1045E400456E64206F66206572726F72207265700A
:1045F4006F727400554E4B4E4F574E204641554CEA
:10460400542061742030782530385800433A5C7463
:104614007261696E696E675C6E5246355F53444BD6
:104624005F31352E302E305F613533363431615C85
:104634006E5246355F53444B5F31352E302E305F1A
:10464400613533363431615C636F6D706F6E656EE6
:1046540074735C6C69627261726965735C757469A8
:104664006C5C6170705F7574696C5F706C617466AA
:104674006F726D2E63000000433A5C747261696E60
:10468400696E675C6E5246355F53444B5F31352E1D
:10469400302E305F613533363431615C6E524635CD
:1046A4005F53444B5F31352E302E305F61353336E6
:1046B4003431615C636F6D706F6E656E74735C6CC6
:1046C40069627261726965735C62616C6C6F635C70
:1046D4006E72665F62616C6C6F632E630000000033
:1046E400433A5C747261696E696E675C6E524635FA
:1046F4005F53444B5F31352E302E305F6135333696
:104704003431615C6E5246355F53444B5F31352E14
:10471400302E305F613533363431615C65787465D1
:10472400726E616C5C667072696E74665C6E7266E1
:104734005F667072696E74662E630000433A5C743F
:104744007261696E696E675C6E5246355F53444BA5
:104754005F31352E302E305F613533363431615C54
:104764006E5246355F53444B5F31352E302E305FE9
:10477400613533363431615C65787465726E616CB1
:104784005C667072696E74665C6E72665F66707287
:10479400696E74665F666F726D61742E63000000EB
:1047A4003031323334353637383941424344454663
:1047B400433A5C747261696E696E675C6E52463529
:1047C4005F53444B5F31352E302E305F61353336C5
:1047D4003431615C6E5246355F53444B5F31352E44
:1047E400302E305F613533363431615C636F6D7008
:1047F4006F6E656E74735C6C696272617269657305
:104804005C6578706572696D656E74616C5F6D6509
:104814006D6F626A5C6E72665F6D656D6F626A2E43
:1048240063000000556E6B6E6F776E206572726F59
:104834007220636F646500004E52465F53554343D4
:10484400455353004E52465F4552524F525F5356A2
:10485400435F48414E444C45525F4D495353494E82
:10486400470000004E52465F4552524F525F534F2D
:1048740046544445564943455F4E4F545F454E4167
:10488400424C4544000000004E52465F4552524F90
:10489400525F494E5445524E414C00004E52465FC1
:1048A4004552524F525F4E4F5F4D454D0000000040
:1048B4004E52465F4552524F525F4E4F545F464FE1
:1048C400554E44004E52465F4552524F525F4E4F32
:1048D400545F535550504F52544544004E52465F16
:1048E4004552524F525F494E56414C49445F5041E4
:1048F40052414D004E52465F4552524F525F494E0F
:1049040056414C49445F5354415445004E52465F0E
:104914004552524F525F494E56414C49445F4C45B3
:104924004E475448000000004E52465F4552524FD5
:10493400525F494E56414C49445F464C41475300EF
:104944004E52465F4552524F525F494E56414C4972
:10495400445F4441544100004E52465F4552524F19
:10496400525F444154415F53495A45004E52465F99
:104974004552524F525F54494D454F555400000023
:104984004E52465F4552524F525F4E554C4C0000BA
:104994004E52465F4552524F525F464F524249442F
:1049A40044454E004E52465F4552524F525F494E67
:1049B40056414C49445F4144445200004E52465FC4
:1049C4004552524F525F4255535900004E52465F72
:1049D4004552524F525F4D4F44554C455F4E4F54D4
:1049E4005F494E495449414C495A4544000000002E
:1049F4004E52465F4552524F525F4D555445585F93
:104A0400494E49545F4641494C4544004E52465F25
:104A14004552524F525F4D555445585F4C4F434B8E
:104A24005F4641494C4544004E52465F4552524F01
:104A3400525F4D555445585F554E4C4F434B5F465E
:104A440041494C45440000004E52465F4552524F86
:104A5400525F4D555445585F434F4E445F494E494C
:104A6400545F4641494C4544000000004E52465FA5
:104A74004552524F525F4D4F44554C455F414C5245
:104A8400454144595F494E495449414C495A45446A
:104A9400000000004E52465F4552524F525F53543D
:104AA4004F524147455F46554C4C00004E52465FBD
:104AB4004552524F525F4150495F4E4F545F494DEA
:104AC400504C454D454E5445440000004E52465FFF
:104AD4004552524F525F464541545552455F4E4FE1
:104AE400545F454E41424C45440000004E52465FDF
:104AF4004552524F525F494F5F50454E44494E47CD
:104B0400000000004E52465F4552524F525F4452DD
:104B1400565F5457495F4552525F4F56455252555E
:104B24004E0000004E52465F4552524F525F44526F
:104B3400565F5457495F4552525F414E41434B00C3
:104B44004E52465F4552524F525F4452565F54573D
:104B5400495F4552525F444E41434B004E52465FBB
:104B64004552524F525F424C455F495053505F5239
:104B7400585F504B545F5452554E43415445440082
:104B84004E52465F4552524F525F424C455F495028
:104B940053505F4348414E4E454C5F414C52454152
:104BA40044595F4558495354530000004E52465FE0
:104BB4004552524F525F424C455F495053505F4CEF
:104BC400494E4B5F444953434F4E4E45435445442D
:104BD400000000004E52465F4552524F525F424C15
:104BE400455F495053505F504545525F52454A45D1
:104BF4004354454400000000000000003C4800000D
:104C0400010000004848000002000000684800005D
:104C1400030000008C48000004000000A0480000CD
:104C240005000000B448000006000000C848000069
:104C340007000000E048000008000000F8480000F9
:104C440009000000104900000A0000002C4900007F
:104C54000B000000444900000C0000005C49000007
:104C64000D000000704900000E000000844900009F
:104C74000F0000009449000010000000A849000043
:104C840011000000C049000080000000D04900006D
:104C940081000000F449000082000000104A000076
:104CA400830000002C4A0000840000004C4A0000ED
:104CB40085000000704A000086000000984A000049
:104CC40090000000B04A000091000000D04A0000AB
:104CD40092000000F04A000000820000084B00002F
:104CE40001820000284B000002820000444B0000B7
:104CF40000840000604B000001840000844B00002D
:104D040002840000B04B000003840000D84B000074
:104D14002E2E2F2E2E2F2E2E2F2E2E2F2E2E2F2EAA
:104D24002E2F6D6F64756C65732F6E7266782F68A5
:104D3400616C2F6E72665F6770696F2E6800000089
:104D44000000000000000000000000000338FDD84F
:104D54007047000050525300433A5C747261696EAC
:104D6400696E675C6E5246355F53444B5F31352E36
:104D7400302E305F613533363431615C6E524635E6
:104D84005F53444B5F31352E302E305F61353336FF
:104D94003431615C6D6F64756C65735C6E726678DA
:104DA4005C647269766572735C7372635C7072734F
:104DB4005C6E7266785F7072732E63002E2E2F2ED7
:104DC4002E2F2E2E2F2E2E2F2E2E2F2E2E2F696E7F
:104DD400746567726174696F6E2F6E7266782F6E78
:104DE4007266785F676C75652E6800002E2E2F2E14
:104DF4002E2F2E2E2F2E2E2F2E2E2F2E2E2F6D6F4A
:104E040064756C65732F6E7266782F68616C2F6E93
:104E140072665F6770696F2E680000005457494DD1
:104E240000000000433A5C747261696E696E675CED
:104E34006E5246355F53444B5F31352E302E305F12
:104E4400613533363431615C6E5246355F53444BC1
:104E54005F31352E302E305F613533363431615C4D
:104E64006D6F64756C65735C6E7266785C64726990
:104E7400766572735C7372635C6E7266785F747766
:104E8400696D2E6300000000F13500002E2E2F2ED8
:104E94002E2F2E2E2F2E2E2F2E2E2F2E2E2F696EAE
:104EA400746567726174696F6E2F6E7266782F6EA7
:104EB4007266785F676C75652E6800002E2E2F2E43
:104EC4002E2F2E2E2F2E2E2F2E2E2F2E2E2F6D6F79
:104ED40064756C65732F6E7266782F68616C2F6EC3
:104EE40072665F6770696F2E680000005541525406
:104EF40000000000433A5C747261696E696E675C1D
:104F04006E5246355F53444B5F31352E302E305F41
:104F1400613533363431615C6E5246355F53444BF0
:104F24005F31352E302E305F613533363431615C7C
:104F34006D6F64756C65735C6E7266785C647269BF
:104F4400766572735C7372635C6E7266785F7561AA
:104F540072742E63000000002E2E2F2E2E2F2E2E64
:104F64002F2E2E2F2E2E2F2E2E2F696E74656772E4
:104F74006174696F6E2F6E7266782F6E7266785FD9
:104F8400676C75652E6800002E2E2F2E2E2F2E2E68
:104F94002F2E2E2F2E2E2F2E2E2F6D6F64756C65B7
:104FA400732F6E7266782F68616C2F6E72665F67FE
:104FB40070696F2E6800000055415254450000008E
:104FC400433A5C747261696E696E675C6E52463511
:104FD4005F53444B5F31352E302E305F61353336AD
:104FE4003431615C6E5246355F53444B5F31352E2C
:104FF400302E305F613533363431615C6D6F6475EA
:105004006C65735C6E7266785C64726976657273E3
:105014005C7372635C6E7266785F75617274652E20
:1050240063000000000000000030004000000000A9
:10503400010000002D0000000000000054656D70A8
:10504400657261747572653A20257325642E253066
:1050540032642043656C7369757320646567726597
:1050640065732E0048756D69646974793A202573F7
:1050740025642E253032642025252E0054574920DE
:1050840041646472657373204E41434B20726563BF
:105094006569766564000000545749204461746171
:1050A400204E41434B207265636569766564000058
:1050B4004E6F204E41434B206576656E74732072AB
:1050C4006563656976656400433A5C747261696E10
:1050D400696E675C6E5246355F53444B5F31352EC3
:1050E400302E305F613533363431615C6E52463573
:1050F4005F53444B5F31352E302E305F613533368C
:105104003431615C6578616D706C65735C70657277
:105114006970686572616C5C7477695F73656E73DE
:105124006F725C6D61696E2E630000004661696C8C
:10513400656420746F2073656E6420736F667420D9
:10514400726573657420636F6D6D616E6400000039
:105154000D0A5457492073656E736F722065786128
:105164006D706C6520737461727465642E00000048
:105174000000000000000000000000000338FDD81B
:10518400704700005465726D696E616C0000000028
:105194005254540053454747455200004300000011
:1051A400504F534958000000202020202020202068
:1051B4002068282828282020202020202020202083
:1051C4002020202020202020481010101010101023
:1051D400101010101010101084848484848484842B
:1051E400848410101010101010818181818181013C
:1051F400010101010101010101010101010101019B
:105204000101011010101010108282828282820229
:10521400020202020202020202020202020202026A
:1052240002020210101010200007032004170201CC
:105234000857104080000000A0510000A452000054
:10524400B853000053756E004D6F6E0054756500C1
:1052540057656400546875004672690053617400B0
:10526400000000004A616E00466562004D617200F4
:10527400417072004D6179004A756E004A756C0088
:1052840041756700536570004F6374004E6F76007C
:105294004465630000000000414D00504D000000D3
:1052A400DC530000D8530000D8530000D85300004A
:1052B400D8530000D8530000D8530000D85300003E
:1052C400D8530000D8530000FFFFFFFFFFFFFFFF8C
:1052D400FFFFFFFFFFFF00001853000048520000CB
:1052E40054530000685200009C520000FC5200001D
:1052F400AC53000008530000256D2F25642F257939
:105304000000000025612025622025652025542009
:105314002559000053756E646179004D6F6E6461A8
:10532400790054756573646179005765646E6573BB
:1053340064617900546875727364617900467269B6
:1053440064617900536174757264617900000000CE
:105354004A616E756172790046656272756172792F
:10536400004D6172636800417072696C004D61792F
:10537400004A756E65004A756C79004175677573EE
:10538400740053657074656D626572004F63746F69
:10539400626572004E6F76656D6265720044656386
:1053A400656D62657200000025483A254D3A255323
:1053B40000000000A5410000C1410000CD410000F3
:1053C400D9410000F5410000014200000D420000F7
:0A53D4001B420000000000002E0044
:1053E000B4430000000000000000000000000000C6
:1053F000F4440000FC440000044500000C4500009B
:10540000144500001C450000244500002C45000008
:10541000344500003C450000444500004C45000078
:10542000544500000090D0033C5200003C52000064
:0C5430003C5200003C5200003C520000C6
:040000030000025D9A
:00000001FF
